{
  "contractName": "CounterV2",
  "abi": [
    {
      "inputs": [],
      "name": "counter",
      "outputs": [
        {
          "internalType": "uint256",
          "name": "",
          "type": "uint256"
        }
      ],
      "stateMutability": "view",
      "type": "function",
      "constant": true
    },
    {
      "inputs": [],
      "name": "incrementByOne",
      "outputs": [],
      "stateMutability": "nonpayable",
      "type": "function"
    },
    {
      "inputs": [
        {
          "internalType": "uint256",
          "name": "intialValue",
          "type": "uint256"
        }
      ],
      "name": "initialize",
      "outputs": [],
      "stateMutability": "nonpayable",
      "type": "function"
    },
    {
      "inputs": [],
      "name": "decrementByOne",
      "outputs": [],
      "stateMutability": "nonpayable",
      "type": "function"
    }
  ],
  "bytecode": "0x608060405234801561001057600080fd5b50610181806100206000396000f3fe608060405234801561001057600080fd5b5060043610610068577c0100000000000000000000000000000000000000000000000000000000600035046301c791c8811461006d5780630c07fc241461007757806361bc221a1461007f578063fe4b84df1461009a575b600080fd5b6100756100ad565b005b6100756100c3565b61008860005481565b60405190815260200160405180910390f35b6100756100a83660046100d2565b600055565b6000805490806100bc83610101565b9190505550565b6000805490806100bc836100ea565b6000602082840312156100e3578081fd5b5035919050565b6000816100f9576100f961011c565b506000190190565b60006000198214156101155761011561011c565b5060010190565b7f4e487b7100000000000000000000000000000000000000000000000000000000600052601160045260246000fdfea264697066735822122066673f758bc27be893585ceef8a5991feb14a9ee7a8397bcf651d9b397b4699e64736f6c63430008040033",
  "immutableReferences": {},
  "source": "// SPDX-License-Identifier: MIT\npragma solidity >=0.4.21;\n\nimport {Counter} from './Counter.sol';\n\ncontract CounterV2 is  Counter {\n    function decrementByOne() public{\n        counter--;\n    }\n}\n",
  "sourcePath": "/home/rishabh/Desktop/ClayStack/Deployment/Counter_UUSP/contracts/CounterV2.sol",
  "compiler": {
    "name": "solc",
    "version": "0.8.4+commit.c7e474f2.Emscripten.clang"
  },
  "schemaVersion": "3.4.1",
  "updatedAt": "2021-06-07T16:03:34.315Z",
  "networkType": "ethereum",
  "devdoc": {
    "kind": "dev",
    "methods": {},
    "version": 1
  },
  "userdoc": {
    "kind": "user",
    "methods": {},
    "version": 1
  }
}