{
  "contractName": "Counter",
  "abi": [
    {
      "inputs": [],
      "name": "counter",
      "outputs": [
        {
          "internalType": "uint256",
          "name": "",
          "type": "uint256"
        }
      ],
      "stateMutability": "view",
      "type": "function",
      "constant": true
    },
    {
      "inputs": [
        {
          "internalType": "uint256",
          "name": "intialValue",
          "type": "uint256"
        }
      ],
      "name": "initialize",
      "outputs": [],
      "stateMutability": "nonpayable",
      "type": "function"
    },
    {
      "inputs": [],
      "name": "incrementByOne",
      "outputs": [],
      "stateMutability": "nonpayable",
      "type": "function"
    }
  ],
  "bytecode": "0x608060405234801561001057600080fd5b5061012f806100206000396000f3fe6080604052348015600f57600080fd5b50600436106058577c0100000000000000000000000000000000000000000000000000000000600035046301c791c88114605d57806361bc221a146065578063fe4b84df14607f575b600080fd5b6063608f565b005b606d60005481565b60405190815260200160405180910390f35b6063608a36600460a3565b600055565b600080549080609c8360ba565b9190505550565b60006020828403121560b3578081fd5b5035919050565b600060001982141560f2577f4e487b710000000000000000000000000000000000000000000000000000000081526011600452602481fd5b506001019056fea2646970667358221220e97940c4e20aa9f79326f2584b2077eaa92c72208613dc10de8c5fb984ad451264736f6c63430008040033",
  "immutableReferences": {},
  "source": "// SPDX-License-Identifier: MIT\npragma solidity >=0.4.21;\n\ncontract Counter{\n    uint public counter;\n\n    function initialize(uint intialValue) public {\n        counter = intialValue;\n    }\n\n    function incrementByOne() public {\n        counter++;\n    }\n}\n",
  "sourcePath": "/home/rishabh/Desktop/ClayStack/Deployment/Counter_UUSP/contracts/Counter.sol",
  "compiler": {
    "name": "solc",
    "version": "0.8.4+commit.c7e474f2.Emscripten.clang"
  },
  "schemaVersion": "3.4.1",
  "updatedAt": "2021-06-07T16:03:34.311Z",
  "networkType": "ethereum",
  "devdoc": {
    "kind": "dev",
    "methods": {},
    "version": 1
  },
  "userdoc": {
    "kind": "user",
    "methods": {},
    "version": 1
  }
}