{
  "contractName": "Counter",
  "abi": [
    {
      "anonymous": false,
      "inputs": [
        {
          "indexed": false,
          "internalType": "address",
          "name": "previousAdmin",
          "type": "address"
        },
        {
          "indexed": false,
          "internalType": "address",
          "name": "newAdmin",
          "type": "address"
        }
      ],
      "name": "AdminChanged",
      "type": "event"
    },
    {
      "anonymous": false,
      "inputs": [
        {
          "indexed": true,
          "internalType": "address",
          "name": "beacon",
          "type": "address"
        }
      ],
      "name": "BeaconUpgraded",
      "type": "event"
    },
    {
      "anonymous": false,
      "inputs": [
        {
          "indexed": true,
          "internalType": "address",
          "name": "implementation",
          "type": "address"
        }
      ],
      "name": "Upgraded",
      "type": "event"
    },
    {
      "inputs": [],
      "name": "counter",
      "outputs": [
        {
          "internalType": "uint256",
          "name": "",
          "type": "uint256"
        }
      ],
      "stateMutability": "view",
      "type": "function",
      "constant": true
    },
    {
      "inputs": [],
      "name": "implmentation",
      "outputs": [
        {
          "internalType": "address",
          "name": "",
          "type": "address"
        }
      ],
      "stateMutability": "view",
      "type": "function",
      "constant": true
    },
    {
      "inputs": [],
      "name": "owner",
      "outputs": [
        {
          "internalType": "address",
          "name": "",
          "type": "address"
        }
      ],
      "stateMutability": "view",
      "type": "function",
      "constant": true
    },
    {
      "inputs": [
        {
          "internalType": "address",
          "name": "newImplementation",
          "type": "address"
        },
        {
          "internalType": "bytes",
          "name": "data",
          "type": "bytes"
        }
      ],
      "name": "upgradeToAndCall",
      "outputs": [],
      "stateMutability": "payable",
      "type": "function",
      "payable": true
    },
    {
      "inputs": [
        {
          "internalType": "uint256",
          "name": "intialValue",
          "type": "uint256"
        }
      ],
      "name": "initialize",
      "outputs": [],
      "stateMutability": "nonpayable",
      "type": "function"
    },
    {
      "inputs": [],
      "name": "incrementByOne",
      "outputs": [],
      "stateMutability": "nonpayable",
      "type": "function"
    },
    {
      "inputs": [
        {
          "internalType": "address",
          "name": "newImplementation",
          "type": "address"
        }
      ],
      "name": "upgradeTo",
      "outputs": [],
      "stateMutability": "nonpayable",
      "type": "function"
    }
  ],
  "bytecode": "0x608060405234801561001057600080fd5b5061094f806100206000396000f3fe60806040526004361061008d576000357c01000000000000000000000000000000000000000000000000000000009004806361bc221a1161006b57806361bc221a146100dc5780637dd6359a146101055780638da5cb5b1461013d578063fe4b84df1461015d57600080fd5b806301c791c8146100925780633659cfe6146100a95780634f1ef286146100c9575b600080fd5b34801561009e57600080fd5b506100a761019c565b005b3480156100b557600080fd5b506100a76100c4366004610715565b6101b3565b6100a76100d736600461072f565b6101bf565b3480156100e857600080fd5b506100f260655481565b6040519081526020015b60405180910390f35b34801561011157600080fd5b5060665461012590600160a060020a031681565b604051600160a060020a0390911681526020016100fc565b34801561014957600080fd5b5060675461012590600160a060020a031681565b34801561016957600080fd5b506100a76101783660046107ec565b6065556067805473ffffffffffffffffffffffffffffffffffffffff191633179055565b606580549060006101ac83610883565b9190505550565b6101bc816101d8565b50565b6101c882610218565b6101d4828260016102f0565b5050565b6101e1816104ec565b604051600160a060020a038216907fbc7cd75a20ee27fd9adebab32041f755214dbc6bffa90cc0225b39da2e5c2d3b90600090a250565b606754600160a060020a0316331461027a5760405160e560020a62461bcd02815260206004820152601460248201527f556e617574686f7269736564205570677261646500000000000000000000000060448201526064015b60405180910390fd5b803b6101bc5760405160e560020a62461bcd028152602060048201526024808201527f4e657720696d706c656d656e746174696f6e206973206e6f74206120636f6e7460448201527f72616374000000000000000000000000000000000000000000000000000000006064820152608401610271565b60006103237f360894a13ba1a3210667c828492db98dca3e2076cc3735a920a3ca505d382bbc54600160a060020a031690565b905061032e846104ec565b60008351118061033b5750815b1561034c5761034a84846105b1565b505b7f4910fdfa16fed3260ed0e7147f7cc6da11a60208b5b9406d12a635614ffd9143805460ff166104e557805460ff19166001178155604051600160a060020a03831660248201526103f990869060440160408051601f198184030181529190526020810180517bffffffffffffffffffffffffffffffffffffffffffffffffffffffff167f3659cfe6000000000000000000000000000000000000000000000000000000001790526105b1565b50805460ff191681557f360894a13ba1a3210667c828492db98dca3e2076cc3735a920a3ca505d382bbc54600160a060020a038381169116146104a75760405160e560020a62461bcd02815260206004820152602f60248201527f45524331393637557067726164653a207570677261646520627265616b73206660448201527f75727468657220757067726164657300000000000000000000000000000000006064820152608401610271565b6104b0856104ec565b604051600160a060020a038616907fbc7cd75a20ee27fd9adebab32041f755214dbc6bffa90cc0225b39da2e5c2d3b90600090a25b5050505050565b803b6105635760405160e560020a62461bcd02815260206004820152602d60248201527f455243313936373a206e657720696d706c656d656e746174696f6e206973206e60448201527f6f74206120636f6e7472616374000000000000000000000000000000000000006064820152608401610271565b7f360894a13ba1a3210667c828492db98dca3e2076cc3735a920a3ca505d382bbc805473ffffffffffffffffffffffffffffffffffffffff1916600160a060020a0392909216919091179055565b6060823b61062a5760405160e560020a62461bcd02815260206004820152602660248201527f416464726573733a2064656c65676174652063616c6c20746f206e6f6e2d636f60448201527f6e747261637400000000000000000000000000000000000000000000000000006064820152608401610271565b60008084600160a060020a0316846040516106459190610804565b600060405180830381855af49150503d8060008114610680576040519150601f19603f3d011682016040523d82523d6000602084013e610685565b606091505b50915091506106ad82826040518060600160405280602781526020016108f3602791396106b6565b95945050505050565b606083156106c55750816106f2565b8251156106d55782518084602001fd5b8160405160e560020a62461bcd0281526004016102719190610820565b9392505050565b8035600160a060020a038116811461071057600080fd5b919050565b600060208284031215610726578081fd5b6106f2826106f9565b60008060408385031215610741578081fd5b61074a836106f9565b9150602083013567ffffffffffffffff80821115610766578283fd5b818501915085601f830112610779578283fd5b81358181111561078b5761078b6108c3565b604051601f8201601f19908116603f011681019083821181831017156107b3576107b36108c3565b816040528281528860208487010111156107cb578586fd5b82602086016020830137856020848301015280955050505050509250929050565b6000602082840312156107fd578081fd5b5035919050565b60008251610816818460208701610853565b9190910192915050565b602081526000825180602084015261083f816040850160208701610853565b601f01601f19169190910160400192915050565b60005b8381101561086e578181015183820152602001610856565b8381111561087d576000848401525b50505050565b60006000198214156108bc577f4e487b710000000000000000000000000000000000000000000000000000000081526011600452602481fd5b5060010190565b7f4e487b7100000000000000000000000000000000000000000000000000000000600052604160045260246000fdfe416464726573733a206c6f772d6c6576656c2064656c65676174652063616c6c206661696c6564a26469706673582212205993790aff0467c274d443a9d391a65b229536ec25712d8175b0aa170be4084364736f6c63430008040033",
  "immutableReferences": {},
  "source": "// SPDX-License-Identifier: MIT\npragma solidity 0.8.4;\nimport \"@openzeppelin/contracts-upgradeable/proxy/utils/UUPSUpgradeable.sol\";\n\ncontract Counter is UUPSUpgradeable{\n    uint public counter;\n    address public implmentation;\n    address public owner;\n    function initialize(uint intialValue) public {\n        counter = intialValue;\n        owner = msg.sender;\n    }\n\n    function incrementByOne() public {\n        counter++;\n    }\n\n    function upgradeTo(address newImplementation) external virtual override {\n        _upgradeTo(newImplementation);\n    }\n\n    function _authorizeUpgrade(address newImplementation) internal virtual override{\n        require(msg.sender==owner,\"Unauthorised Upgrade\");\n        require(AddressUpgradeable.isContract(newImplementation), \"New implementation is not a contract\");\n    }\n}\n",
  "sourcePath": "/home/rishabh/Desktop/ClayStack/Deployment/clay-template/contracts/Counter.sol",
  "compiler": {
    "name": "solc",
    "version": "0.8.4+commit.c7e474f2.Emscripten.clang"
  },
  "schemaVersion": "3.4.1",
  "updatedAt": "2021-06-07T13:23:38.305Z",
  "networkType": "ethereum",
  "devdoc": {
    "kind": "dev",
    "methods": {},
    "version": 1
  },
  "userdoc": {
    "kind": "user",
    "methods": {},
    "version": 1
  }
}