{
  "contractName": "CounterV2",
  "abi": [
    {
      "anonymous": false,
      "inputs": [
        {
          "indexed": false,
          "internalType": "address",
          "name": "previousAdmin",
          "type": "address"
        },
        {
          "indexed": false,
          "internalType": "address",
          "name": "newAdmin",
          "type": "address"
        }
      ],
      "name": "AdminChanged",
      "type": "event"
    },
    {
      "anonymous": false,
      "inputs": [
        {
          "indexed": true,
          "internalType": "address",
          "name": "beacon",
          "type": "address"
        }
      ],
      "name": "BeaconUpgraded",
      "type": "event"
    },
    {
      "anonymous": false,
      "inputs": [
        {
          "indexed": true,
          "internalType": "address",
          "name": "implementation",
          "type": "address"
        }
      ],
      "name": "Upgraded",
      "type": "event"
    },
    {
      "inputs": [],
      "name": "counter",
      "outputs": [
        {
          "internalType": "uint256",
          "name": "",
          "type": "uint256"
        }
      ],
      "stateMutability": "view",
      "type": "function",
      "constant": true
    },
    {
      "inputs": [],
      "name": "implmentation",
      "outputs": [
        {
          "internalType": "address",
          "name": "",
          "type": "address"
        }
      ],
      "stateMutability": "view",
      "type": "function",
      "constant": true
    },
    {
      "inputs": [],
      "name": "incrementByOne",
      "outputs": [],
      "stateMutability": "nonpayable",
      "type": "function"
    },
    {
      "inputs": [
        {
          "internalType": "uint256",
          "name": "intialValue",
          "type": "uint256"
        }
      ],
      "name": "initialize",
      "outputs": [],
      "stateMutability": "nonpayable",
      "type": "function"
    },
    {
      "inputs": [],
      "name": "owner",
      "outputs": [
        {
          "internalType": "address",
          "name": "",
          "type": "address"
        }
      ],
      "stateMutability": "view",
      "type": "function",
      "constant": true
    },
    {
      "inputs": [
        {
          "internalType": "address",
          "name": "newImplementation",
          "type": "address"
        }
      ],
      "name": "upgradeTo",
      "outputs": [],
      "stateMutability": "nonpayable",
      "type": "function"
    },
    {
      "inputs": [
        {
          "internalType": "address",
          "name": "newImplementation",
          "type": "address"
        },
        {
          "internalType": "bytes",
          "name": "data",
          "type": "bytes"
        }
      ],
      "name": "upgradeToAndCall",
      "outputs": [],
      "stateMutability": "payable",
      "type": "function",
      "payable": true
    },
    {
      "inputs": [],
      "name": "decrementByOne",
      "outputs": [],
      "stateMutability": "nonpayable",
      "type": "function"
    }
  ],
  "bytecode": "0x608060405234801561001057600080fd5b506109a0806100206000396000f3fe608060405260043610610098576000357c01000000000000000000000000000000000000000000000000000000009004806361bc221a1161006b57806361bc221a146100fc5780637dd6359a146101255780638da5cb5b1461015d578063fe4b84df1461017d57600080fd5b806301c791c81461009d5780630c07fc24146100b45780633659cfe6146100c95780634f1ef286146100e9575b600080fd5b3480156100a957600080fd5b506100b26101bc565b005b3480156100c057600080fd5b506100b26101d3565b3480156100d557600080fd5b506100b26100e4366004610745565b6101e3565b6100b26100f736600461075f565b6101ef565b34801561010857600080fd5b5061011260655481565b6040519081526020015b60405180910390f35b34801561013157600080fd5b5060665461014590600160a060020a031681565b604051600160a060020a03909116815260200161011c565b34801561016957600080fd5b5060675461014590600160a060020a031681565b34801561018957600080fd5b506100b261019836600461081c565b6065556067805473ffffffffffffffffffffffffffffffffffffffff191633179055565b606580549060006101cc836108ca565b9190505550565b606580549060006101cc836108b3565b6101ec81610208565b50565b6101f882610248565b61020482826001610320565b5050565b6102118161051c565b604051600160a060020a038216907fbc7cd75a20ee27fd9adebab32041f755214dbc6bffa90cc0225b39da2e5c2d3b90600090a250565b606754600160a060020a031633146102aa5760405160e560020a62461bcd02815260206004820152601460248201527f556e617574686f7269736564205570677261646500000000000000000000000060448201526064015b60405180910390fd5b803b6101ec5760405160e560020a62461bcd028152602060048201526024808201527f4e657720696d706c656d656e746174696f6e206973206e6f74206120636f6e7460448201527f726163740000000000000000000000000000000000000000000000000000000060648201526084016102a1565b60006103537f360894a13ba1a3210667c828492db98dca3e2076cc3735a920a3ca505d382bbc54600160a060020a031690565b905061035e8461051c565b60008351118061036b5750815b1561037c5761037a84846105e1565b505b7f4910fdfa16fed3260ed0e7147f7cc6da11a60208b5b9406d12a635614ffd9143805460ff1661051557805460ff19166001178155604051600160a060020a038316602482015261042990869060440160408051601f198184030181529190526020810180517bffffffffffffffffffffffffffffffffffffffffffffffffffffffff167f3659cfe6000000000000000000000000000000000000000000000000000000001790526105e1565b50805460ff191681557f360894a13ba1a3210667c828492db98dca3e2076cc3735a920a3ca505d382bbc54600160a060020a038381169116146104d75760405160e560020a62461bcd02815260206004820152602f60248201527f45524331393637557067726164653a207570677261646520627265616b73206660448201527f757274686572207570677261646573000000000000000000000000000000000060648201526084016102a1565b6104e08561051c565b604051600160a060020a038616907fbc7cd75a20ee27fd9adebab32041f755214dbc6bffa90cc0225b39da2e5c2d3b90600090a25b5050505050565b803b6105935760405160e560020a62461bcd02815260206004820152602d60248201527f455243313936373a206e657720696d706c656d656e746174696f6e206973206e60448201527f6f74206120636f6e74726163740000000000000000000000000000000000000060648201526084016102a1565b7f360894a13ba1a3210667c828492db98dca3e2076cc3735a920a3ca505d382bbc805473ffffffffffffffffffffffffffffffffffffffff1916600160a060020a0392909216919091179055565b6060823b61065a5760405160e560020a62461bcd02815260206004820152602660248201527f416464726573733a2064656c65676174652063616c6c20746f206e6f6e2d636f60448201527f6e7472616374000000000000000000000000000000000000000000000000000060648201526084016102a1565b60008084600160a060020a0316846040516106759190610834565b600060405180830381855af49150503d80600081146106b0576040519150601f19603f3d011682016040523d82523d6000602084013e6106b5565b606091505b50915091506106dd8282604051806060016040528060278152602001610944602791396106e6565b95945050505050565b606083156106f5575081610722565b8251156107055782518084602001fd5b8160405160e560020a62461bcd0281526004016102a19190610850565b9392505050565b8035600160a060020a038116811461074057600080fd5b919050565b600060208284031215610756578081fd5b61072282610729565b60008060408385031215610771578081fd5b61077a83610729565b9150602083013567ffffffffffffffff80821115610796578283fd5b818501915085601f8301126107a9578283fd5b8135818111156107bb576107bb610914565b604051601f8201601f19908116603f011681019083821181831017156107e3576107e3610914565b816040528281528860208487010111156107fb578586fd5b82602086016020830137856020848301015280955050505050509250929050565b60006020828403121561082d578081fd5b5035919050565b60008251610846818460208701610883565b9190910192915050565b602081526000825180602084015261086f816040850160208701610883565b601f01601f19169190910160400192915050565b60005b8381101561089e578181015183820152602001610886565b838111156108ad576000848401525b50505050565b6000816108c2576108c26108e5565b506000190190565b60006000198214156108de576108de6108e5565b5060010190565b7f4e487b7100000000000000000000000000000000000000000000000000000000600052601160045260246000fd5b7f4e487b7100000000000000000000000000000000000000000000000000000000600052604160045260246000fdfe416464726573733a206c6f772d6c6576656c2064656c65676174652063616c6c206661696c6564a264697066735822122086d796bb5de0296c43cb59920a09df8f82501dfb4e98402b05e110b3cb3a615a64736f6c63430008040033",
  "immutableReferences": {},
  "source": "// SPDX-License-Identifier: MIT\npragma solidity 0.8.4;\nimport \"./Counter.sol\";\n\ncontract CounterV2 is Counter{\n    function decrementByOne() public {\n        counter--;\n    }\n}",
  "sourcePath": "/home/rishabh/Desktop/ClayStack/Deployment/Counter_UUSP/contracts/CounterV2.sol",
  "compiler": {
    "name": "solc",
    "version": "0.8.4+commit.c7e474f2.Emscripten.clang"
  },
  "schemaVersion": "3.4.1",
  "updatedAt": "2021-06-07T15:05:29.420Z",
  "networkType": "ethereum",
  "devdoc": {
    "kind": "dev",
    "methods": {},
    "version": 1
  },
  "userdoc": {
    "kind": "user",
    "methods": {},
    "version": 1
  }
}